{"abi":[{"type":"constructor","inputs":[{"name":"_oracle","type":"address","internalType":"address"}],"stateMutability":"nonpayable"},{"type":"function","name":"auraOracle","inputs":[],"outputs":[{"name":"","type":"address","internalType":"address"}],"stateMutability":"view"},{"type":"function","name":"canDeposit","inputs":[],"outputs":[{"name":"","type":"bool","internalType":"bool"}],"stateMutability":"view"},{"type":"function","name":"emergencyHalt","inputs":[{"name":"riskScore","type":"uint256","internalType":"uint256"}],"outputs":[],"stateMutability":"nonpayable"},{"type":"function","name":"isProtocolActive","inputs":[],"outputs":[{"name":"","type":"bool","internalType":"bool"}],"stateMutability":"view"},{"type":"function","name":"lastRiskScore","inputs":[],"outputs":[{"name":"","type":"uint256","internalType":"uint256"}],"stateMutability":"view"},{"type":"function","name":"lastUpdateTimestamp","inputs":[],"outputs":[{"name":"","type":"uint256","internalType":"uint256"}],"stateMutability":"view"},{"type":"event","name":"ProtocolResumed","inputs":[{"name":"admin","type":"address","indexed":false,"internalType":"address"},{"name":"timestamp","type":"uint256","indexed":false,"internalType":"uint256"}],"anonymous":false},{"type":"event","name":"ProtocolShielded","inputs":[{"name":"riskScore","type":"uint256","indexed":false,"internalType":"uint256"},{"name":"reason","type":"string","indexed":false,"internalType":"string"},{"name":"timestamp","type":"uint256","indexed":false,"internalType":"uint256"}],"anonymous":false},{"type":"error","name":"ProtocolAlreadyShielded","inputs":[]},{"type":"error","name":"Unauthorized","inputs":[]}],"bytecode":{"object":"0x60a06040525f805460ff1916600117905534801561001b575f80fd5b506040516102db3803806102db83398101604081905261003a9161004b565b6001600160a01b0316608052610078565b5f6020828403121561005b575f80fd5b81516001600160a01b0381168114610071575f80fd5b9392505050565b6080516102456100965f395f818160c9015261010e01526102455ff3fe608060405234801561000f575f80fd5b5060043610610060575f3560e01c806314bcec9f1461006457806359141c97146100805780637e4de43e14610089578063938e0fa4146100a5578063e78a5875146100ba578063fe1dd28c146100c4575b5f80fd5b61006d60025481565b6040519081526020015b60405180910390f35b61006d60015481565b5f546100959060ff1681565b6040519015158152602001610077565b6100b86100b33660046101f8565b610103565b005b5f5460ff16610095565b6100eb7f000000000000000000000000000000000000000000000000000000000000000081565b6040516001600160a01b039091168152602001610077565b336001600160a01b037f0000000000000000000000000000000000000000000000000000000000000000161461014b576040516282b42960e81b815260040160405180910390fd5b5f5460ff1661016d5760405163610d229160e11b815260040160405180910390fd5b60018190554260025560508111156101f5575f805460ff191690556040805182815260606020808301829052908201527f435249544943414c5f5249534b5f5448524553484f4c445f45584345454445446080820152428183015290517f9d88a5f9f34849a4a455a369fc8ea3b1bdf9d7a3cc5797c100d251bd43bd82c59181900360a00190a15b50565b5f60208284031215610208575f80fd5b503591905056fea2646970667358221220ab0a551ea88bde4db0a7d71d5279f45787ae1fd8c5400ec36af2cc914a9cdb1164736f6c63430008180033","linkReferences":{}},"methodIdentifiers":{"auraOracle()":"fe1dd28c","canDeposit()":"e78a5875","emergencyHalt(uint256)":"938e0fa4","isProtocolActive()":"7e4de43e","lastRiskScore()":"59141c97","lastUpdateTimestamp()":"14bcec9f"},"id":0}