{"abi":[{"type":"constructor","inputs":[{"name":"_asset","type":"address","internalType":"contract IERC20"},{"name":"_name","type":"string","internalType":"string"},{"name":"_symbol","type":"string","internalType":"string"},{"name":"_priceFeed","type":"address","internalType":"address"},{"name":"_creExecutor","type":"address","internalType":"address"}],"stateMutability":"nonpayable"},{"type":"function","name":"CRE_ROLE","inputs":[],"outputs":[{"name":"","type":"bytes32","internalType":"bytes32"}],"stateMutability":"view"},{"type":"function","name":"DEFAULT_ADMIN_ROLE","inputs":[],"outputs":[{"name":"","type":"bytes32","internalType":"bytes32"}],"stateMutability":"view"},{"type":"function","name":"GUARDIAN_ROLE","inputs":[],"outputs":[{"name":"","type":"bytes32","internalType":"bytes32"}],"stateMutability":"view"},{"type":"function","name":"MAX_DEVIATION_BPS","inputs":[],"outputs":[{"name":"","type":"uint256","internalType":"uint256"}],"stateMutability":"view"},{"type":"function","name":"ORACLE_HEARTBEAT","inputs":[],"outputs":[{"name":"","type":"uint256","internalType":"uint256"}],"stateMutability":"view"},{"type":"function","name":"allowance","inputs":[{"name":"owner","type":"address","internalType":"address"},{"name":"spender","type":"address","internalType":"address"}],"outputs":[{"name":"","type":"uint256","internalType":"uint256"}],"stateMutability":"view"},{"type":"function","name":"approve","inputs":[{"name":"spender","type":"address","internalType":"address"},{"name":"value","type":"uint256","internalType":"uint256"}],"outputs":[{"name":"","type":"bool","internalType":"bool"}],"stateMutability":"nonpayable"},{"type":"function","name":"asset","inputs":[],"outputs":[{"name":"","type":"address","internalType":"address"}],"stateMutability":"view"},{"type":"function","name":"assetPriceFeed","inputs":[],"outputs":[{"name":"","type":"address","internalType":"contract AggregatorV3Interface"}],"stateMutability":"view"},{"type":"function","name":"balanceOf","inputs":[{"name":"account","type":"address","internalType":"address"}],"outputs":[{"name":"","type":"uint256","internalType":"uint256"}],"stateMutability":"view"},{"type":"function","name":"convertToAssets","inputs":[{"name":"shares","type":"uint256","internalType":"uint256"}],"outputs":[{"name":"","type":"uint256","internalType":"uint256"}],"stateMutability":"view"},{"type":"function","name":"convertToShares","inputs":[{"name":"assets","type":"uint256","internalType":"uint256"}],"outputs":[{"name":"","type":"uint256","internalType":"uint256"}],"stateMutability":"view"},{"type":"function","name":"currentRiskAllocation","inputs":[],"outputs":[{"name":"","type":"uint256","internalType":"uint256"}],"stateMutability":"view"},{"type":"function","name":"decimals","inputs":[],"outputs":[{"name":"","type":"uint8","internalType":"uint8"}],"stateMutability":"view"},{"type":"function","name":"deposit","inputs":[{"name":"assets","type":"uint256","internalType":"uint256"},{"name":"receiver","type":"address","internalType":"address"}],"outputs":[{"name":"","type":"uint256","internalType":"uint256"}],"stateMutability":"nonpayable"},{"type":"function","name":"getLatestSnapshot","inputs":[],"outputs":[{"name":"","type":"tuple","internalType":"struct AuraVault.RiskSnapshot","components":[{"name":"lastUpdate","type":"uint256","internalType":"uint256"},{"name":"riskScore","type":"uint256","internalType":"uint256"},{"name":"aiRationale","type":"string","internalType":"string"}]}],"stateMutability":"view"},{"type":"function","name":"getRoleAdmin","inputs":[{"name":"role","type":"bytes32","internalType":"bytes32"}],"outputs":[{"name":"","type":"bytes32","internalType":"bytes32"}],"stateMutability":"view"},{"type":"function","name":"grantRole","inputs":[{"name":"role","type":"bytes32","internalType":"bytes32"},{"name":"account","type":"address","internalType":"address"}],"outputs":[],"stateMutability":"nonpayable"},{"type":"function","name":"hasRole","inputs":[{"name":"role","type":"bytes32","internalType":"bytes32"},{"name":"account","type":"address","internalType":"address"}],"outputs":[{"name":"","type":"bool","internalType":"bool"}],"stateMutability":"view"},{"type":"function","name":"latestSnapshot","inputs":[],"outputs":[{"name":"lastUpdate","type":"uint256","internalType":"uint256"},{"name":"riskScore","type":"uint256","internalType":"uint256"},{"name":"aiRationale","type":"string","internalType":"string"}],"stateMutability":"view"},{"type":"function","name":"maxDeposit","inputs":[{"name":"","type":"address","internalType":"address"}],"outputs":[{"name":"","type":"uint256","internalType":"uint256"}],"stateMutability":"view"},{"type":"function","name":"maxMint","inputs":[{"name":"","type":"address","internalType":"address"}],"outputs":[{"name":"","type":"uint256","internalType":"uint256"}],"stateMutability":"view"},{"type":"function","name":"maxRedeem","inputs":[{"name":"owner","type":"address","internalType":"address"}],"outputs":[{"name":"","type":"uint256","internalType":"uint256"}],"stateMutability":"view"},{"type":"function","name":"maxWithdraw","inputs":[{"name":"owner","type":"address","internalType":"address"}],"outputs":[{"name":"","type":"uint256","internalType":"uint256"}],"stateMutability":"view"},{"type":"function","name":"mint","inputs":[{"name":"shares","type":"uint256","internalType":"uint256"},{"name":"receiver","type":"address","internalType":"address"}],"outputs":[{"name":"","type":"uint256","internalType":"uint256"}],"stateMutability":"nonpayable"},{"type":"function","name":"name","inputs":[],"outputs":[{"name":"","type":"string","internalType":"string"}],"stateMutability":"view"},{"type":"function","name":"pause","inputs":[],"outputs":[],"stateMutability":"nonpayable"},{"type":"function","name":"paused","inputs":[],"outputs":[{"name":"","type":"bool","internalType":"bool"}],"stateMutability":"view"},{"type":"function","name":"previewDeposit","inputs":[{"name":"assets","type":"uint256","internalType":"uint256"}],"outputs":[{"name":"","type":"uint256","internalType":"uint256"}],"stateMutability":"view"},{"type":"function","name":"previewMint","inputs":[{"name":"shares","type":"uint256","internalType":"uint256"}],"outputs":[{"name":"","type":"uint256","internalType":"uint256"}],"stateMutability":"view"},{"type":"function","name":"previewRedeem","inputs":[{"name":"shares","type":"uint256","internalType":"uint256"}],"outputs":[{"name":"","type":"uint256","internalType":"uint256"}],"stateMutability":"view"},{"type":"function","name":"previewWithdraw","inputs":[{"name":"assets","type":"uint256","internalType":"uint256"}],"outputs":[{"name":"","type":"uint256","internalType":"uint256"}],"stateMutability":"view"},{"type":"function","name":"rebalance","inputs":[{"name":"newRiskScore","type":"uint256","internalType":"uint256"},{"name":"rationale","type":"string","internalType":"string"}],"outputs":[],"stateMutability":"nonpayable"},{"type":"function","name":"redeem","inputs":[{"name":"shares","type":"uint256","internalType":"uint256"},{"name":"receiver","type":"address","internalType":"address"},{"name":"owner","type":"address","internalType":"address"}],"outputs":[{"name":"","type":"uint256","internalType":"uint256"}],"stateMutability":"nonpayable"},{"type":"function","name":"renounceRole","inputs":[{"name":"role","type":"bytes32","internalType":"bytes32"},{"name":"callerConfirmation","type":"address","internalType":"address"}],"outputs":[],"stateMutability":"nonpayable"},{"type":"function","name":"revokeRole","inputs":[{"name":"role","type":"bytes32","internalType":"bytes32"},{"name":"account","type":"address","internalType":"address"}],"outputs":[],"stateMutability":"nonpayable"},{"type":"function","name":"supportsInterface","inputs":[{"name":"interfaceId","type":"bytes4","internalType":"bytes4"}],"outputs":[{"name":"","type":"bool","internalType":"bool"}],"stateMutability":"view"},{"type":"function","name":"symbol","inputs":[],"outputs":[{"name":"","type":"string","internalType":"string"}],"stateMutability":"view"},{"type":"function","name":"totalAssets","inputs":[],"outputs":[{"name":"","type":"uint256","internalType":"uint256"}],"stateMutability":"view"},{"type":"function","name":"totalSupply","inputs":[],"outputs":[{"name":"","type":"uint256","internalType":"uint256"}],"stateMutability":"view"},{"type":"function","name":"transfer","inputs":[{"name":"to","type":"address","internalType":"address"},{"name":"value","type":"uint256","internalType":"uint256"}],"outputs":[{"name":"","type":"bool","internalType":"bool"}],"stateMutability":"nonpayable"},{"type":"function","name":"transferFrom","inputs":[{"name":"from","type":"address","internalType":"address"},{"name":"to","type":"address","internalType":"address"},{"name":"value","type":"uint256","internalType":"uint256"}],"outputs":[{"name":"","type":"bool","internalType":"bool"}],"stateMutability":"nonpayable"},{"type":"function","name":"unpause","inputs":[],"outputs":[],"stateMutability":"nonpayable"},{"type":"function","name":"withdraw","inputs":[{"name":"assets","type":"uint256","internalType":"uint256"},{"name":"receiver","type":"address","internalType":"address"},{"name":"owner","type":"address","internalType":"address"}],"outputs":[{"name":"","type":"uint256","internalType":"uint256"}],"stateMutability":"nonpayable"},{"type":"event","name":"Approval","inputs":[{"name":"owner","type":"address","indexed":true,"internalType":"address"},{"name":"spender","type":"address","indexed":true,"internalType":"address"},{"name":"value","type":"uint256","indexed":false,"internalType":"uint256"}],"anonymous":false},{"type":"event","name":"CircuitBreakerTriggered","inputs":[{"name":"tried","type":"uint256","indexed":false,"internalType":"uint256"},{"name":"current","type":"uint256","indexed":false,"internalType":"uint256"},{"name":"msg","type":"string","indexed":false,"internalType":"string"}],"anonymous":false},{"type":"event","name":"Deposit","inputs":[{"name":"sender","type":"address","indexed":true,"internalType":"address"},{"name":"owner","type":"address","indexed":true,"internalType":"address"},{"name":"assets","type":"uint256","indexed":false,"internalType":"uint256"},{"name":"shares","type":"uint256","indexed":false,"internalType":"uint256"}],"anonymous":false},{"type":"event","name":"Paused","inputs":[{"name":"account","type":"address","indexed":false,"internalType":"address"}],"anonymous":false},{"type":"event","name":"RebalanceExecuted","inputs":[{"name":"timestamp","type":"uint256","indexed":true,"internalType":"uint256"},{"name":"oldRisk","type":"uint256","indexed":false,"internalType":"uint256"},{"name":"newRisk","type":"uint256","indexed":false,"internalType":"uint256"},{"name":"rationale","type":"string","indexed":false,"internalType":"string"}],"anonymous":false},{"type":"event","name":"RoleAdminChanged","inputs":[{"name":"role","type":"bytes32","indexed":true,"internalType":"bytes32"},{"name":"previousAdminRole","type":"bytes32","indexed":true,"internalType":"bytes32"},{"name":"newAdminRole","type":"bytes32","indexed":true,"internalType":"bytes32"}],"anonymous":false},{"type":"event","name":"RoleGranted","inputs":[{"name":"role","type":"bytes32","indexed":true,"internalType":"bytes32"},{"name":"account","type":"address","indexed":true,"internalType":"address"},{"name":"sender","type":"address","indexed":true,"internalType":"address"}],"anonymous":false},{"type":"event","name":"RoleRevoked","inputs":[{"name":"role","type":"bytes32","indexed":true,"internalType":"bytes32"},{"name":"account","type":"address","indexed":true,"internalType":"address"},{"name":"sender","type":"address","indexed":true,"internalType":"address"}],"anonymous":false},{"type":"event","name":"Transfer","inputs":[{"name":"from","type":"address","indexed":true,"internalType":"address"},{"name":"to","type":"address","indexed":true,"internalType":"address"},{"name":"value","type":"uint256","indexed":false,"internalType":"uint256"}],"anonymous":false},{"type":"event","name":"Unpaused","inputs":[{"name":"account","type":"address","indexed":false,"internalType":"address"}],"anonymous":false},{"type":"event","name":"Withdraw","inputs":[{"name":"sender","type":"address","indexed":true,"internalType":"address"},{"name":"receiver","type":"address","indexed":true,"internalType":"address"},{"name":"owner","type":"address","indexed":true,"internalType":"address"},{"name":"assets","type":"uint256","indexed":false,"internalType":"uint256"},{"name":"shares","type":"uint256","indexed":false,"internalType":"uint256"}],"anonymous":false},{"type":"error","name":"AccessControlBadConfirmation","inputs":[]},{"type":"error","name":"AccessControlUnauthorizedAccount","inputs":[{"name":"account","type":"address","internalType":"address"},{"name":"neededRole","type":"bytes32","internalType":"bytes32"}]},{"type":"error","name":"DeviationTooHigh","inputs":[{"name":"deviation","type":"uint256","internalType":"uint256"}]},{"type":"error","name":"ERC20InsufficientAllowance","inputs":[{"name":"spender","type":"address","internalType":"address"},{"name":"allowance","type":"uint256","internalType":"uint256"},{"name":"needed","type":"uint256","internalType":"uint256"}]},{"type":"error","name":"ERC20InsufficientBalance","inputs":[{"name":"sender","type":"address","internalType":"address"},{"name":"balance","type":"uint256","internalType":"uint256"},{"name":"needed","type":"uint256","internalType":"uint256"}]},{"type":"error","name":"ERC20InvalidApprover","inputs":[{"name":"approver","type":"address","internalType":"address"}]},{"type":"error","name":"ERC20InvalidReceiver","inputs":[{"name":"receiver","type":"address","internalType":"address"}]},{"type":"error","name":"ERC20InvalidSender","inputs":[{"name":"sender","type":"address","internalType":"address"}]},{"type":"error","name":"ERC20InvalidSpender","inputs":[{"name":"spender","type":"address","internalType":"address"}]},{"type":"error","name":"ERC4626ExceededMaxDeposit","inputs":[{"name":"receiver","type":"address","internalType":"address"},{"name":"assets","type":"uint256","internalType":"uint256"},{"name":"max","type":"uint256","internalType":"uint256"}]},{"type":"error","name":"ERC4626ExceededMaxMint","inputs":[{"name":"receiver","type":"address","internalType":"address"},{"name":"shares","type":"uint256","internalType":"uint256"},{"name":"max","type":"uint256","internalType":"uint256"}]},{"type":"error","name":"ERC4626ExceededMaxRedeem","inputs":[{"name":"owner","type":"address","internalType":"address"},{"name":"shares","type":"uint256","internalType":"uint256"},{"name":"max","type":"uint256","internalType":"uint256"}]},{"type":"error","name":"ERC4626ExceededMaxWithdraw","inputs":[{"name":"owner","type":"address","internalType":"address"},{"name":"assets","type":"uint256","internalType":"uint256"},{"name":"max","type":"uint256","internalType":"uint256"}]},{"type":"error","name":"EnforcedPause","inputs":[]},{"type":"error","name":"ExpectedPause","inputs":[]},{"type":"error","name":"OracleStale","inputs":[]},{"type":"error","name":"ReentrancyGuardReentrantCall","inputs":[]},{"type":"error","name":"SafeERC20FailedOperation","inputs":[{"name":"token","type":"address","internalType":"address"}]}],"bytecode":{"object":"0x60e060405234801562000010575f80fd5b506040516200246a3803806200246a8339810160408190526200003391620003e3565b848484600362000044838262000513565b50600462000053828262000513565b5050505f806200006983620001a060201b60201c565b91509150816200007b5760126200007d565b805b60ff1660a05250506001600160a01b031660805260017f9b779b17422d0df92223018b32b4d1fa46e071723d6817e2486d003becc55f00556001600160a01b03821660c052620000ce5f3362000239565b50620000fb7f4e9fb4542c51584eec8e841667c7f0078908f626adbbbfcd019638ee800d61a98262000239565b50620001287f55435dd261a4b9b3364963f7738a7a662ad9c84396d64be3365284bb7f0a50413362000239565b506040805160608101825242815260326020808301918252835180850185526012815271125b9a5d1a585b0819195c1b1bde5b595b9d60721b9181019190915292820183905281516007908155905160085590916009906200018b908262000513565b5050611388600a5550620005df945050505050565b5f8080620001ad60405190565b6040805160048152602481019091526020810180516001600160e01b0390811663313ce56760e01b179091529192505f918291620001ef91889190620002e916565b509092509050620001ff83604052565b8180156200020e575060203d10155b80156200021c575060ff8111155b62000229575f806200022d565b6001815b94509450505050915091565b5f8281526005602090815260408083206001600160a01b038516845290915281205460ff16620002e0575f8381526005602090815260408083206001600160a01b03861684529091529020805460ff19166001179055620002973390565b6001600160a01b0316826001600160a01b0316847f2f8788117e7eff1d82e926ec794901d17c78024a50270940304540a733656f0d60405160405180910390a4506001620002e3565b505f5b92915050565b5f805f60405f855160208701885afa92505f51915060205190509250925092565b6001600160a01b03811681146200031f575f80fd5b50565b634e487b7160e01b5f52604160045260245ffd5b5f82601f83011262000346575f80fd5b81516001600160401b038082111562000363576200036362000322565b604051601f8301601f19908116603f011681019082821181831017156200038e576200038e62000322565b8160405283815260209250866020858801011115620003ab575f80fd5b5f91505b83821015620003ce5785820183015181830184015290820190620003af565b5f602085830101528094505050505092915050565b5f805f805f60a08688031215620003f8575f80fd5b855162000405816200030a565b60208701519095506001600160401b038082111562000422575f80fd5b6200043089838a0162000336565b9550604088015191508082111562000446575f80fd5b50620004558882890162000336565b935050606086015162000468816200030a565b60808701519092506200047b816200030a565b809150509295509295909350565b600181811c908216806200049e57607f821691505b602082108103620004bd57634e487b7160e01b5f52602260045260245ffd5b50919050565b601f8211156200050e57805f5260205f20601f840160051c81016020851015620004ea5750805b601f840160051c820191505b818110156200050b575f8155600101620004f6565b50505b505050565b81516001600160401b038111156200052f576200052f62000322565b620005478162000540845462000489565b84620004c3565b602080601f8311600181146200057d575f8415620005655750858301515b5f19600386901b1c1916600185901b178555620005d7565b5f85815260208120601f198616915b82811015620005ad578886015182559484019460019091019084016200058c565b5085821015620005cb57878501515f19600388901b60f8161c191681555b505060018460011b0185555b505050505050565b60805160a05160c051611e44620006265f395f81816103af0152610fc101525f6107cf01525f81816103eb015281816105f9015281816110d101526111ce0152611e445ff3fe608060405234801561000f575f80fd5b506004361061026b575f3560e01c80635db0cb651161014b578063ba087652116100bf578063ce96cb7711610084578063ce96cb7714610570578063d518f24314610583578063d547741f14610598578063d905777e146105ab578063dd62ed3e146105be578063ef8b30f714610546575f80fd5b8063ba0876521461050c578063c033f6771461051f578063c63d75b614610417578063c6e6f59214610546578063cb22af4c14610559575f80fd5b806394bf804d1161011057806394bf804d146104b157806395d89b41146104c4578063a217fddf146104cc578063a9059cbb146104d3578063b3d7f6b9146104e6578063b460af94146104f9575f80fd5b80635db0cb65146104485780636e553f651461045b57806370a082311461046e5780638456cb591461049657806391d148541461049e575f80fd5b80632f2ff15d116101e25780633f4ba83a116101a75780633f4ba83a1461040f578063402d267d146104175780634a83c3b71461042b5780634cdad506146102c25780634d5ab46e146104345780635c975abb1461043d575f80fd5b80632f2ff15d14610368578063313ce5671461037d57806336568abe1461039757806338b27692146103aa57806338d52e0f146103e9575f80fd5b80630a28a477116102335780630a28a477146102e857806318160ddd146102fb57806323b872dd14610303578063248a9ca31461031657806324ea54f41461033857806325c684031461035f575f80fd5b806301e1d1141461026f57806301ffc9a71461028a57806306fdde03146102ad57806307a2d13a146102c2578063095ea7b3146102d5575b5f80fd5b6102776105f6565b6040519081526020015b60405180910390f35b61029d6102983660046117bd565b610685565b6040519015158152602001610281565b6102b56106bb565b6040516102819190611827565b6102776102d0366004611839565b61074b565b61029d6102e336600461186b565b610756565b6102776102f6366004611839565b61076d565b600254610277565b61029d610311366004611893565b610779565b610277610324366004611839565b5f9081526005602052604090206001015490565b6102777f55435dd261a4b9b3364963f7738a7a662ad9c84396d64be3365284bb7f0a504181565b6102776107d081565b61037b6103763660046118cc565b61079e565b005b6103856107c8565b60405160ff9091168152602001610281565b61037b6103a53660046118cc565b6107f3565b6103d17f000000000000000000000000000000000000000000000000000000000000000081565b6040516001600160a01b039091168152602001610281565b7f00000000000000000000000000000000000000000000000000000000000000006103d1565b61037b61082b565b6102776104253660046118f6565b505f1990565b610277610e1081565b610277600a5481565b60065460ff1661029d565b61037b61045636600461190f565b610860565b6102776104693660046118cc565b6109a5565b61027761047c3660046118f6565b6001600160a01b03165f9081526020819052604090205490565b61037b6109d6565b61029d6104ac3660046118cc565b610a08565b6102776104bf3660046118cc565b610a32565b6102b5610a4d565b6102775f81565b61029d6104e136600461186b565b610a5c565b6102776104f4366004611839565b610a69565b610277610507366004611984565b610a75565b61027761051a366004611984565b610acb565b6102777f4e9fb4542c51584eec8e841667c7f0078908f626adbbbfcd019638ee800d61a981565b610277610554366004611839565b610b18565b610561610b23565b604051610281939291906119bd565b61027761057e3660046118f6565b610bbc565b61058b610bc9565b60405161028191906119db565b61037b6105a63660046118cc565b610c9d565b6102776105b93660046118f6565b610cc1565b6102776105cc366004611a09565b6001600160a01b039182165f90815260016020908152604080832093909416825291909152205490565b5f7f00000000000000000000000000000000000000000000000000000000000000006040516370a0823160e01b81523060048201526001600160a01b0391909116906370a0823190602401602060405180830381865afa15801561065c573d5f803e3d5ffd5b505050506040513d601f19601f820116820180604052508101906106809190611a31565b905090565b5f6001600160e01b03198216637965db0b60e01b14806106b557506301ffc9a760e01b6001600160e01b03198316145b92915050565b6060600380546106ca90611a48565b80601f01602080910402602001604051908101604052809291908181526020018280546106f690611a48565b80156107415780601f1061071857610100808354040283529160200191610741565b820191905f5260205f20905b81548152906001019060200180831161072457829003601f168201915b5050505050905090565b5f6106b5825f610cde565b5f33610763818585610d16565b5060019392505050565b5f6106b5826001610d23565b5f33610786858285610d52565b610791858585610db5565b60019150505b9392505050565b5f828152600560205260409020600101546107b881610e12565b6107c28383610e1c565b50505050565b5f610680817f0000000000000000000000000000000000000000000000000000000000000000611a94565b6001600160a01b038116331461081c5760405163334bd91960e11b815260040160405180910390fd5b6108268282610ead565b505050565b7f55435dd261a4b9b3364963f7738a7a662ad9c84396d64be3365284bb7f0a504161085581610e12565b61085d610f18565b50565b7f4e9fb4542c51584eec8e841667c7f0078908f626adbbbfcd019638ee800d61a961088a81610e12565b610892610f6a565b61089a610f90565b6108a2610fbe565b5f6108ae856064611aad565b6108b9906064611ac0565b90506108c481611072565b6008546040805160608101825242815260208082018990528251601f8801829004820281018201845287815291928301919088908890819084018382808284375f92019190915250505091525080516007908155602082015160085560408201516009906109329082611b36565b505050600a82905560405142907fb03ebfd19746f7b6284b61b3824747f71cab1b4a4da0286bfe0e5f9d12bd4821906109729084908a908a908a90611bf6565b60405180910390a250506107c260017f9b779b17422d0df92223018b32b4d1fa46e071723d6817e2486d003becc55f0055565b5f5f196109b6565b60405180910390fd5b5f6109c085610b18565b90506109ce338587846110cc565b949350505050565b7f55435dd261a4b9b3364963f7738a7a662ad9c84396d64be3365284bb7f0a5041610a0081610e12565b61085d61115e565b5f9182526005602090815260408084206001600160a01b0393909316845291905290205460ff1690565b5f5f195f610a3f85610a69565b90506109ce338583886110cc565b6060600480546106ca90611a48565b5f33610763818585610db5565b5f6106b5826001610cde565b5f80610a8083610bbc565b905080851115610aa957828582604051633fa733bb60e21b81526004016109ad93929190611c32565b5f610ab38661076d565b9050610ac2338686898561119b565b95945050505050565b5f80610ad683610cc1565b905080851115610aff57828582604051632e52afbb60e21b81526004016109ad93929190611c32565b5f610b098661074b565b9050610ac2338686848a61119b565b5f6106b5825f610d23565b600780546008546009805492939192610b3b90611a48565b80601f0160208091040260200160405190810160405280929190818152602001828054610b6790611a48565b8015610bb25780601f10610b8957610100808354040283529160200191610bb2565b820191905f5260205f20905b815481529060010190602001808311610b9557829003601f168201915b5050505050905083565b5f6106b56102d083610cc1565b610beb60405180606001604052805f81526020015f8152602001606081525090565b604080516060810182526007805482526008546020830152600980549293919291840191610c1890611a48565b80601f0160208091040260200160405190810160405280929190818152602001828054610c4490611a48565b8015610c8f5780601f10610c6657610100808354040283529160200191610c8f565b820191905f5260205f20905b815481529060010190602001808311610c7257829003601f168201915b505050505081525050905090565b5f82815260056020526040902060010154610cb781610e12565b6107c28383610ead565b6001600160a01b0381165f908152602081905260408120546106b5565b5f610797610cea6105f6565b610cf5906001611c53565b610d005f600a611d46565b600254610d0d9190611c53565b8591908561125b565b610826838383600161129d565b5f610797610d3282600a611d46565b600254610d3f9190611c53565b610d476105f6565b610d0d906001611c53565b6001600160a01b038381165f908152600160209081526040808320938616835292905220545f198110156107c25781811015610da757828183604051637dc7a0d960e11b81526004016109ad93929190611c32565b6107c284848484035f61129d565b6001600160a01b038316610dde57604051634b637e8f60e11b81525f60048201526024016109ad565b6001600160a01b038216610e075760405163ec442f0560e01b81525f60048201526024016109ad565b610826838383611361565b61085d8133611474565b5f610e278383610a08565b610ea6575f8381526005602090815260408083206001600160a01b03861684529091529020805460ff19166001179055610e5e3390565b6001600160a01b0316826001600160a01b0316847f2f8788117e7eff1d82e926ec794901d17c78024a50270940304540a733656f0d60405160405180910390a45060016106b5565b505f6106b5565b5f610eb88383610a08565b15610ea6575f8381526005602090815260408083206001600160a01b0386168085529252808320805460ff1916905551339286917ff6391f5c32d9c69d2a47ea670b442974b53935d1edc7fd64eb21e047a839171b9190a45060016106b5565b610f206114ad565b6006805460ff191690557f5db9ee0a495bf2e6ff9c91a7834c1ba4fdd244a5e8aa4e537bd38aeae4b073aa335b6040516001600160a01b03909116815260200160405180910390a1565b60065460ff1615610f8e5760405163d93c066560e01b815260040160405180910390fd5b565b610f986114d0565b60027f9b779b17422d0df92223018b32b4d1fa46e071723d6817e2486d003becc55f0055565b5f7f00000000000000000000000000000000000000000000000000000000000000006001600160a01b031663feaf968c6040518163ffffffff1660e01b815260040160a060405180830381865afa15801561101b573d5f803e3d5ffd5b505050506040513d601f19601f8201168201806040525081019061103f9190611d6d565b509350505050610e1081426110549190611aad565b111561085d57604051628af0d360e31b815260040160405180910390fd5b5f600a5482111561109157600a5461108a9083611aad565b90506110a2565b81600a5461109f9190611aad565b90505b6107d08111156110c85760405163e1e67a0b60e01b8152600481018290526024016109ad565b5050565b6110f87f0000000000000000000000000000000000000000000000000000000000000000853085611512565b6111028382611548565b826001600160a01b0316846001600160a01b03167fdcbc1c05240f31ff3ad067ef1ee35ce4997762752e3a095284754544f4c709d78484604051611150929190918252602082015260400190565b60405180910390a350505050565b611166610f6a565b6006805460ff191660011790557f62e78cea01bee320cd4e420270b5ea74000d11b0c9f74754ebdbfc544b05a258610f4d3390565b826001600160a01b0316856001600160a01b0316146111bf576111bf838683610d52565b6111c9838261157c565b6111f47f000000000000000000000000000000000000000000000000000000000000000085846115b0565b826001600160a01b0316846001600160a01b0316866001600160a01b03167ffbde797d201c681b91056529119e0b02407c7bb96a4a2c75c01fc9667232c8db858560405161124c929190918252602082015260400190565b60405180910390a45050505050565b5f611288611268836115e5565b801561128357505f848061127e5761127e611db9565b868809115b151590565b611293868686611611565b610ac29190611c53565b6001600160a01b0384166112c65760405163e602df0560e01b81525f60048201526024016109ad565b6001600160a01b0383166112ef57604051634a1406b160e11b81525f60048201526024016109ad565b6001600160a01b038085165f90815260016020908152604080832093871683529290522082905580156107c257826001600160a01b0316846001600160a01b03167f8c5be1e5ebec7d5bd14f71427d1e84f3dd0314c0f7b2291e5b200ac8c7c3b9258460405161115091815260200190565b6001600160a01b03831661138b578060025f8282546113809190611c53565b909155506113e89050565b6001600160a01b0383165f90815260208190526040902054818110156113ca5783818360405163391434e360e21b81526004016109ad93929190611c32565b6001600160a01b0384165f9081526020819052604090209082900390555b6001600160a01b03821661140457600280548290039055611422565b6001600160a01b0382165f9081526020819052604090208054820190555b816001600160a01b0316836001600160a01b03167fddf252ad1be2c89b69c2b068fc378daa952ba7f163c4a11628f55a4df523b3ef8360405161146791815260200190565b60405180910390a3505050565b61147e8282610a08565b6110c85760405163e2517d3f60e01b81526001600160a01b0382166004820152602481018390526044016109ad565b60065460ff16610f8e57604051638dfc202b60e01b815260040160405180910390fd5b7f9b779b17422d0df92223018b32b4d1fa46e071723d6817e2486d003becc55f0054600203610f8e57604051633ee5aeb560e01b815260040160405180910390fd5b6115208484848460016116c1565b6107c257604051635274afe760e01b81526001600160a01b03851660048201526024016109ad565b6001600160a01b0382166115715760405163ec442f0560e01b81525f60048201526024016109ad565b6110c85f8383611361565b6001600160a01b0382166115a557604051634b637e8f60e11b81525f60048201526024016109ad565b6110c8825f83611361565b6115bd838383600161172e565b61082657604051635274afe760e01b81526001600160a01b03841660048201526024016109ad565b5f60028260038111156115fa576115fa611dcd565b6116049190611de1565b60ff166001149050919050565b5f805f61161e8686611790565b91509150815f036116425783818161163857611638611db9565b0492505050610797565b8184116116595761165960038515026011186117ac565b5f848688095f868103871696879004966002600389028118808a02820302808a02820302808a02820302808a02820302808a02820302808a02909103029181900381900460010185841190960395909502919093039390930492909217029150509392505050565b6040516323b872dd60e01b5f8181526001600160a01b038781166004528616602452604485905291602083606481808c5af1925060015f5114831661171d578383151615611711573d5f823e3d81fd5b5f883b113d1516831692505b604052505f60605295945050505050565b60405163a9059cbb60e01b5f8181526001600160a01b038616600452602485905291602083604481808b5af1925060015f51148316611784578383151615611778573d5f823e3d81fd5b5f873b113d1516831692505b60405250949350505050565b5f805f1983850993909202808410938190039390930393915050565b634e487b715f52806020526024601cfd5b5f602082840312156117cd575f80fd5b81356001600160e01b031981168114610797575f80fd5b5f81518084525f5b81811015611808576020818501810151868301820152016117ec565b505f602082860101526020601f19601f83011685010191505092915050565b602081525f61079760208301846117e4565b5f60208284031215611849575f80fd5b5035919050565b80356001600160a01b0381168114611866575f80fd5b919050565b5f806040838503121561187c575f80fd5b61188583611850565b946020939093013593505050565b5f805f606084860312156118a5575f80fd5b6118ae84611850565b92506118bc60208501611850565b9150604084013590509250925092565b5f80604083850312156118dd575f80fd5b823591506118ed60208401611850565b90509250929050565b5f60208284031215611906575f80fd5b61079782611850565b5f805f60408486031215611921575f80fd5b83359250602084013567ffffffffffffffff8082111561193f575f80fd5b818601915086601f830112611952575f80fd5b813581811115611960575f80fd5b876020828501011115611971575f80fd5b6020830194508093505050509250925092565b5f805f60608486031215611996575f80fd5b833592506119a660208501611850565b91506119b460408501611850565b90509250925092565b838152826020820152606060408201525f610ac260608301846117e4565b6020815281516020820152602082015160408201525f60408301516060808401526109ce60808401826117e4565b5f8060408385031215611a1a575f80fd5b611a2383611850565b91506118ed60208401611850565b5f60208284031215611a41575f80fd5b5051919050565b600181811c90821680611a5c57607f821691505b602082108103611a7a57634e487b7160e01b5f52602260045260245ffd5b50919050565b634e487b7160e01b5f52601160045260245ffd5b60ff81811683821601908111156106b5576106b5611a80565b818103818111156106b5576106b5611a80565b80820281158282048414176106b5576106b5611a80565b634e487b7160e01b5f52604160045260245ffd5b601f82111561082657805f5260205f20601f840160051c81016020851015611b105750805b601f840160051c820191505b81811015611b2f575f8155600101611b1c565b5050505050565b815167ffffffffffffffff811115611b5057611b50611ad7565b611b6481611b5e8454611a48565b84611aeb565b602080601f831160018114611b97575f8415611b805750858301515b5f19600386901b1c1916600185901b178555611bee565b5f85815260208120601f198616915b82811015611bc557888601518255948401946001909101908401611ba6565b5085821015611be257878501515f19600388901b60f8161c191681555b505060018460011b0185555b505050505050565b84815283602082015260606040820152816060820152818360808301375f818301608090810191909152601f909201601f191601019392505050565b6001600160a01b039390931683526020830191909152604082015260600190565b808201808211156106b5576106b5611a80565b600181815b80851115611ca057815f1904821115611c8657611c86611a80565b80851615611c9357918102915b93841c9390800290611c6b565b509250929050565b5f82611cb6575060016106b5565b81611cc257505f6106b5565b8160018114611cd85760028114611ce257611cfe565b60019150506106b5565b60ff841115611cf357611cf3611a80565b50506001821b6106b5565b5060208310610133831016604e8410600b8410161715611d21575081810a6106b5565b611d2b8383611c66565b805f1904821115611d3e57611d3e611a80565b029392505050565b5f61079760ff841683611ca8565b805169ffffffffffffffffffff81168114611866575f80fd5b5f805f805f60a08688031215611d81575f80fd5b611d8a86611d54565b9450602086015193506040860151925060608601519150611dad60808701611d54565b90509295509295909350565b634e487b7160e01b5f52601260045260245ffd5b634e487b7160e01b5f52602160045260245ffd5b5f60ff831680611dff57634e487b7160e01b5f52601260045260245ffd5b8060ff8416069150509291505056fea26469706673582212203e6f35e53afe985eff9002f66291e34d60a4c02d49a6bb296ded007c8d9b62fc64736f6c63430008180033","linkReferences":{}},"methodIdentifiers":{"CRE_ROLE()":"c033f677","DEFAULT_ADMIN_ROLE()":"a217fddf","GUARDIAN_ROLE()":"24ea54f4","MAX_DEVIATION_BPS()":"25c68403","ORACLE_HEARTBEAT()":"4a83c3b7","allowance(address,address)":"dd62ed3e","approve(address,uint256)":"095ea7b3","asset()":"38d52e0f","assetPriceFeed()":"38b27692","balanceOf(address)":"70a08231","convertToAssets(uint256)":"07a2d13a","convertToShares(uint256)":"c6e6f592","currentRiskAllocation()":"4d5ab46e","decimals()":"313ce567","deposit(uint256,address)":"6e553f65","getLatestSnapshot()":"d518f243","getRoleAdmin(bytes32)":"248a9ca3","grantRole(bytes32,address)":"2f2ff15d","hasRole(bytes32,address)":"91d14854","latestSnapshot()":"cb22af4c","maxDeposit(address)":"402d267d","maxMint(address)":"c63d75b6","maxRedeem(address)":"d905777e","maxWithdraw(address)":"ce96cb77","mint(uint256,address)":"94bf804d","name()":"06fdde03","pause()":"8456cb59","paused()":"5c975abb","previewDeposit(uint256)":"ef8b30f7","previewMint(uint256)":"b3d7f6b9","previewRedeem(uint256)":"4cdad506","previewWithdraw(uint256)":"0a28a477","rebalance(uint256,string)":"5db0cb65","redeem(uint256,address,address)":"ba087652","renounceRole(bytes32,address)":"36568abe","revokeRole(bytes32,address)":"d547741f","supportsInterface(bytes4)":"01ffc9a7","symbol()":"95d89b41","totalAssets()":"01e1d114","totalSupply()":"18160ddd","transfer(address,uint256)":"a9059cbb","transferFrom(address,address,uint256)":"23b872dd","unpause()":"3f4ba83a","withdraw(uint256,address,address)":"b460af94"},"id":1}